:020000040800F2
:10000000580C0020A1010008BB320008493000084C
:10001000B9320008E50A000831420008000000007B
:10002000000000000000000000000000C3330008D2
:10003000DF0E000800000000BD320008673600082F
:10004000BB010008BB010008BB010008BB010008A0
:10005000BB010008BB010008BB010008BB01000890
:10006000BB010008BB010008BB010008BB01000880
:10007000BB010008BB010008BB010008BB01000870
:10008000BB010008BB010008BB010008BB01000860
:10009000BB010008BB010008BB010008BB01000850
:1000A000BB010008BB010008BB01000821370008A4
:1000B000BB010008BB010008BB010008BB01000830
:1000C000BB010008BB010008BB010008BB01000820
:1000D000BB0100084D3F0008BB010008BB01000840
:1000E000BB010008BB010008BB010008BB01000800
:1000F000BB010008BB010008BB010008BB010008F0
:10010000BB010008BB010008BB010008BB010008DF
:10011000BB010008BB010008BB010008BB010008CF
:10012000BB010008BB010008050E0008BB01000868
:10013000BB010008BB010008BB010008BB010008AF
:10014000BB010008BB010008BB010008BB0100089F
:10015000BB010008BB010008BB010008BB0100088F
:10016000BB010008BB010008BB010008BB0100087F
:10017000BB010008BB010008BB0100080000000033
:10018000BB010008BB010008DFF810D000F044FA02
:1001900000480047514C0008AFF30080580C002085
:1001A0000648804706480047FEE7FEE7FEE7FEE711
:1001B000FEE7FEE7FEE7FEE7FEE7FEE71137000891
:1001C000890100082DE9F05F0546002092469B4614
:1001D00088460646814640241BE02846414647465D
:1001E000224600F0A0F853465A46C01A914110D357
:1001F00011461846224600F087F82D1A67EB0108D1
:100200004F4622460120002100F07EF817EB00093E
:100210004E41201EA4F10104DFDC484631462A4647
:100220004346BDE8F09F40EA01039B0703D009E085
:1002300008C9121F08C0042AFAD203E011F8013BD2
:1002400000F8013B521EF9D27047D2B201E000F82B
:10025000012B491EFBD270470022F6E710B513466A
:100260000A4604461946FFF7F0FF204610BD10B5B8
:10027000002200E0521C835C8C5CA34201D1002B65
:10028000F8D1D8B2E1B2401A10BD000070B50F4DE0
:1002900000B92868002412E00A4602E09E4203D01A
:1002A000521C1378002BF9D1DAB2224305D02BB1BE
:1002B00024B1002100F8011B04E00446401C06782C
:1002C000002EE9D12860204670BD000030000020DB
:1002D00001F0004330B421F0004150EA010206D0A1
:1002E0000A0DA2F56072C1F31301002A02DC30BCD2
:1002F00000207047440F44EAC104C100E01830BC3C
:1003000000EBC25000F06EB8202A04DB203A00FA5D
:1003100002F1002070479140C2F1200320FA03F35C
:10032000194390407047202A04DB203A21FA02F05A
:100330000021704721FA02F3D040C2F1200291401F
:1003400008431946704700000FB4002300B589B078
:100350000CA900910B996FF00042CB601E4B0693E5
:100360001E4B07930423CDE901321D4A0892024631
:100370006B46002000F0FCF909B05DF814FB70B585
:1003800086B006464FF0FF300091CDE90101002014
:1003900015460C4604903246694604A8FFF7D4FF80
:1003A00002460498211825B108B1084600E020460D
:1003B0002860049800280DD0002A02DD00988842A9
:1003C00008D0081B0094CDE901043246694604A810
:1003D000FFF7BAFF06B070BDA9090008C7090008F9
:1003E0003D0600080029A8BF7047401C490008BF0F
:1003F00020F00100704710B4B0FA80FC00FA0CF055
:1004000050EA010404BF10BC704749B1CCF120048C
:1004100021FA04F411FA0CF118BF01212143084319
:10042000A3EB0C01CB1D4FEA00614FEA102042BF45
:10043000002010BC704700EBC35010440029A4BF3B
:1004400010BC7047401C490008BF20F0010010BCE0
:1004500070472DE9FE4F81EA030404F0004421F0C7
:10046000004100944FF0000B23F0004350EA0104D8
:100470005ED052EA03045BD0C3F30A54C1F30A55B9
:100480002C44A4F2F3340194A0FB0254C1F31301F1
:1004900041F48011C3F3130343F4801301FB0244BE
:1004A00000FB034E840A970A44EA815447EA8357C3
:1004B000A4FB076802958D0A05FB07854FEA932C7C
:1004C00004FB0C542705029D4FEA065847EA1637ED
:1004D000B5EB08056EEB070C870E920E47EA811705
:1004E00042EA8312A7FB0201B6EB0B0164EB0004A6
:1004F0002B0D43EA0C335E1844EB1C50DA46514690
:10050000E7FB0201C5F313044FEA0B3343EA14532C
:100510004FEA0432019C43EA0603A4F10C0402945E
:10052000009CCDE900B400F06EFA03B0BDE8F08F96
:1005300000200146F9E72DE9F04D81EA030404F0BB
:10054000004B21F0004514464FF0000A23F0004113
:1005500050EA050220D054EA01021DD0C5F30A5723
:100560000246C5F31303C1F31300C1F30A5640F466
:10057000801543F48013A7EB0608101BD64608F23B
:10058000FD3873EB050002D308F1010801E0921871
:100590005B41B8F1000F03DA00200146BDE8F08DA1
:1005A00000204FF48011064684460EE0171B73EBC3
:1005B000050705D3121B63EB050306434CEA010C48
:1005C00049084FEA300092185B4150EA0107EDD12B
:1005D00052EA030012D082EA040083EA05010843CC
:1005E00005D0101BAB4106D20122002306E00022F9
:1005F0004FF0004302E06FF0010253101AEB0600C7
:100600004CEB085110EB0A0041EB0B01BDE8F04D3B
:1006100000F0EAB900207047064C074D06E0E0689C
:1006200040F0010394E8070098471034AC42F6D339
:10063000FFF7AEFD484F0008684F0008C0B24FF406
:10064000F05100F02FBA00002DE9FF4F087883B079
:100650009946FF2805D0491C2D2804D000240020ED
:1006600008E000200BE00124F9E700EB800003EB39
:100670004000491C0B78FF2BF7D104B14042002306
:100680000293147819461D462D2C01D02B2C04D131
:10069000521C2D2C13D000240294AA461478FF2C4F
:1006A0000FD00A25A3FB057801FB05814FF0000C54
:1006B00003FB0C11521CE3194AEB0101EEE7012484
:1006C000EAE7814453EA010002D019F5C87F06DA4F
:1006D00003980021C0E9001107B0BDE8F08F0025A4
:1006E000AE4E2F46DFF8B882184600F0EFF9CDE99C
:1006F0000001B9F1000002DAC9F1000400E004468B
:100700000023A74A1AEB030B42EB045A12E0E0075E
:1007100007D02A46334638464146FFF79AFE074639
:1007200088462A46334610461946FFF792FE05468C
:100730000E466410002CEAD1DDE90001B9F1000F8A
:100740005A46534606DAFFF7F6FE3A464346FFF7A7
:10075000F2FE05E0FFF77DFE3A464346FFF779FEDD
:10076000029A0AB181F00041039AC2E90001B3E79D
:100770002DE9FF4F1F468DB0D7E901464FF0FF38F6
:100780002E2045464FF000090B90B9696D1C0E985C
:100790008847396A824688470028F6D1BAF1FF3F78
:1007A0000AD024F4D064002E11DDBAF12B0F08D04A
:1007B000BAF12D0F0BD102E0404611B08DE744F4A1
:1007C0008064B9696D1C0E9888478246761E69461A
:1007D000600501D52D2000E02B208DF8000001F1EF
:1007E000010B0DF1200809E0B9696D1C0E988847CE
:1007F00082460F9844F40074761E0560002E02DDD8
:10080000BAF1300FF0D00B998A453ED144F0800404
:1008100006E00F99681CA9F1010944F4007408600E
:10082000B9696D1C761E0E98884782463028F0D034
:100830002BE00B998A4505D1200603D444F08004AF
:10084000761E18E0504604F0D9F808B30DF11301F4
:10085000761E44F400748B4508D2AAF130000BF8E0
:10086000010B200607D5A9F1010003E0200602D400
:1008700009F101008146A00502D50F99681C0860A6
:10088000B9696D1C0E9888478246002ED1DC53E072
:10089000002E51DDBAF1650F02D0BAF1450F4BD1F0
:1008A000A00549D5B9696D1C24F44074761E0E98D4
:1008B00088478246002E0CDD2B2804D0BAF12D0F7C
:1008C00007D144F48074B9696D1C0E98884782463C
:1008D000761EE00501D52D2100E02B2108F8011B33
:1008E000CDF82C8021E00DF12901761E44F400742E
:1008F00088450CD2AAF1300010F0FF0088F8000003
:1009000002D10B99884509D908F1010806E0E005F4
:1009100001D5244801E042F20F708146B9696D1C8F
:100920000E98884782460F980560002E04DD5046D9
:1009300004F064F80028D6D1F9690E988847FF20A2
:100940008BF8000088F800000020069007904B46C6
:100950006A4608A906A8FFF777FEA00502D46FF043
:1009600001002AE714F0240F0AD0E00714D1DDE9D2
:1009700006123868031D3B600068C0E900120BE0F6
:10098000DDE90601FFF7A4FC0146E00704D1386861
:10099000021D3A600068016028460EE7000014401E
:1009A0000000F03FF1D8FFFF426842B1016811F842
:1009B000013B23B1521EC0E90012184670470121C5
:1009C000C160881E704742685AB1C368016843B964
:1009D00083688B4205D0491E521CC0E900120020DA
:1009E00070474FF0FF30704710B5141E73F10004CC
:1009F00008DA401C41F1000192185B411A4301D111
:100A000020F0010010BD2DE9F04D92469B4611B13A
:100A1000B1FA81F202E0B0FA80F220329046FFF79C
:100A200073FC04460F4640EA0A0041EA0B015346B4
:100A30005A46084313D0114653EA010019D0C8F1B1
:100A400040025046FFF76FFC05460E465046594699
:100A50004246FFF759FC084305D0012004E0204638
:100A60003946BDE8F08D0020054346EAE0762C4388
:100A700037430A986305E40AA0EB08000022FD0A48
:100A800044EA47540A3002D500200146E9E701054F
:100A900010196941DDE9084500196941BDE8F04DCB
:100AA000A2E700007F2801D9002208E0064A02EBF5
:100AB0005002C007127800D1120902F00F02012083
:100AC0009040084070470000084F00080EB540F203
:100AD000334202920022CDE900221346FFF793FF32
:100AE00003B000BDFEE7002802D000EB8100C26029
:100AF00070470000002809D08078000906D1012243
:100B0000B6EE000A6421024802F09FBA7047000066
:100B1000AC01002070B50446002C43D0A1682079B8
:100B200088470146E078420702D02288521C228082
:100B3000B1EBD01F10D04FF0005202EBB0104FEAD3
:100B4000B060E070C0F3C202032A08D361F3C7109B
:100B500020F03800E07002E020F03800E070E0782B
:100B6000002500F00701062978D2DFE801F0032212
:100B7000498ED2B3C0F38011B1EBD01F13D1A0784E
:100B800020F0F000A070E16809B120468847258078
:100B9000A07820F00F00401CA070E07820F0070043
:100BA000401CE07070BDA07820F0F0008030A07094
:100BB00070BDC0F38011B1EBD01F0FD0A07820F032
:100BC000F0001030A070216909B1204688472580C7
:100BD000E07820F00700801CE07070BD2088C828F5
:100BE000FBD9A07820F0F0005030A070216A09B144
:100BF00020468847E07820F00700401DE07070BD77
:100C0000C0F38011B1EBD01F1DD1A07820F0F0000F
:100C1000A070E16809B120468847A078C143090760
:100C200006D04FF0805101EB30104FEA3070A070C9
:100C3000616909B1204688472580E07820F00700E7
:100C4000C01CE07070BD20883C28FBD9A07800F063
:100C50000F01012903D002290AD011E059E020F048
:100C6000F0003030A070A16951B12046884707E0FC
:100C700020F0F0004030A070E16909B120468847BB
:100C8000E07820F00700E07070BDC0F38011B1EB98
:100C9000D01F17D0A07820F0F0001030A07021698C
:100CA00009B12046884720883C2806D22580E07874
:100CB00020F00700801CE07070BDE07820F0070095
:100CC000E07070BD21883C29FBD920F00700401C52
:100CD000E07070BDC0F38011B1EBD01F0BD1A078D4
:100CE00020F0F0006030A070616A0029F1D0204649
:100CF000BDE870400847A07820F0F0001030A070E8
:100D0000216909B120468847E07820F00700E070AB
:100D100070BD20F00700E07070BD2DE9F041044681
:100D20000E4615461F46002C13D0002E11D02C2144
:100D30002046FFF791FAA07820F0F0008030A070F4
:100D4000A66045B1E07820F0800065F38610E07081
:100D50002771BDE8F081E07840F08000F5E7000001
:100D600010B50023012211491148FFF7D6FF114A9F
:100D700000210F48FFF7B7FE0E4A03210C48FFF78A
:100D8000B2FE0C4A04210A48FFF7ADFE094A0521CC
:100D90000748FFF7A8FE074A06210548FFF7A3FE0C
:100DA000BDE81040024800F007B80000C13200085A
:100DB000C8010020F50A000810B54FF0FF340028E4
:100DC00003D0084B19680A4606E0204610BD814250
:100DD00001D1204610BD896A0029F8D182621860CD
:100DE000002010BD1000002010B50548046803E085
:100DF0002046FFF78FFEA46A002CF9D110BD000039
:100E000010000020014800F0AFBF00004C0100209E
:100E10000168CAB2103A1823B2FBF3F2064B9B5C8E
:100E2000C3656FF30901032A02D9091D816500E03A
:100E30008165806D70470000A84D000810B501461F
:100E400000208A6A8B694FF0C074002B0ED0B3F576
:100E5000005F1AD062B3012A2AD0022A28D0032ABE
:100E600003D1C96AC90100D5012010BD1AB1012AF8
:100E700006D0022AF9D1C96AC901F6D5012010BDF0
:100E8000C96AA142FBD1012010BD52B1012A0AD08A
:100E9000022A06D0032AF7D1C96AA142F4D101205F
:100EA00010BD012010BDC96AC901FBD5012010BDCC
:100EB000012010BD30B50468256825F48025256023
:100EC000046863608368402B04D0036899600068FD
:100ED000C26030BD03689A600068C16030BD704771
:100EE00072B6FEE790ED001AC0EE010ABCEEE00A11
:100EF00010EE102A002A0AD031B14168891A8160A7
:100F0000012180F82D10704741681144F7E7002156
:100F100080F82D107047000010EE101A0D4A914213
:100F200002DAB3EE0E0A06E010EE101A0A4A9142F7
:100F300001DD9FED0A0A80ED030A9FED091AC1EE5B
:100F4000000AB6EE000A30EE800ABCEEC00A80ED60
:100F5000050A70470000F0410050C3470050C347E6
:100F60000024744D70B504460D4695ED000A84EDDD
:100F7000000A002084F8760095ED020A84ED200A2C
:100F800095ED010A84ED1F0A95ED030A84ED210A0F
:100F90002869A0671448606395ED000AF1EE080A1D
:100FA00095ED011A60EE200A80EE810ADFED0F0A4E
:100FB00003F092F9F7EE000A80EE801A84ED221A0F
:100FC000287E84F82C00696909B1616202E004F1AD
:100FD00028016162616A08602046BDE870409FEDAB
:100FE000040A00F007B8000095170008ABAAAA3E53
:100FF00000000000F0EE400AC0ED040A90ED001A77
:1010000080EE810AD0ED220AF4EEC00AF1EE10FA69
:1010100001DDB0EE600AFFF77FBF00F051B870B598
:10102000C1690968026A14680023002C14D0136097
:10103000826901EB522190F82F20D2B3426A1268E4
:1010400090F82C309A4203D14268521C426033E03F
:101050004268521E42602FE090F82D50012435B1B5
:10106000D0E90156B5420FD180F82F3015E090ED50
:10107000040AB5EEC00AF1EE10FA01D0012300E037
:10108000002380F82F3008E090ED040AB5EEC00A86
:10109000F1EE10FA01D080F82F4090F82F304BB1CC
:1010A0001460028BC2F3080243691A44826101EBA7
:1010B000522101E001F57A71C069016070BD000044
:1010C0002DE9F04186B00446142101A8FFF7C4F8C9
:1010D000002C66D000253448016841F01001016001
:1010E000006800F0100000904FF4007001900220A2
:1010F000029003950327049701260596DFF8AC803C
:1011000001A9404600F0BAFF300201900296039513
:10111000049701A9404600F0B1FF2548E061254849
:101120002062616A04F12800814204D12248606291
:1011300094F82C1001601C481430016841F0010142
:101140000160006800F001000090194C343C2560FB
:10115000A720A0624FF6FF70E06265624FF47A70DC
:101160006063A06920F0700040F02000A061206A58
:1011700040F001002062E06840F00200E060606C36
:1011800040F40040606466612561002211461B2026
:1011900001F0DAF81B2001F0C9F8206840F00100E6
:1011A000206006B0BDE8F0813038024000100240F7
:1011B0003400014010032042A002424290F82D204A
:1011C00090F83110002A0ED049B990F8741031B956
:1011D00090F82F1019B9D0E90110814201D00120F7
:1011E00070470020704719B990F874000028F9D0B2
:1011F000012070470021416070470000F0B50446AF
:101200002DED028B97B0B0EE408A0D461646202198
:101210006846FFF721F8BDB194F82C00B8B100255D
:10122000D4ED240AF5EEC00AF1EE10FA11D0606A8E
:101230000068A8420DD014F8750F401C20700020E3
:1012400017B0BDEC028BF0BD94F82C50E8E70125F7
:10125000E6E704F13000074600F082FA606A0560B4
:10126000D4ED1F0ACDED000AD4ED200ACDED020A1F
:10127000D4ED210ACDED010AD4ED240ACDED030A07
:101280008DED058A9FED0D0A8DED060ABFEE000A71
:101290008DED070A694608A800F0A8F83C2208A9C5
:1012A00004F13800FEF7BFFF002084F82D0032461D
:1012B0000021384600F058FA0120C1E70000000084
:1012C0002DE9F04104462DED048B98B0B0EE408A34
:1012D000B0EE609AF0EE418A0E461746002E1DD001
:1012E00094F82C00E8B1002594ED240AB5EEC00A6C
:1012F000F1EE10FA03D0606A0068A84204D1F5EE5E
:10130000C08AF1EE10FA0ED214F8750F401C20704E
:10131000002018B0BDEC048BBDE8F08194F82C508F
:10132000E2E70125E0E704F13000804600F018FA1A
:10133000606A056094ED200A8DED120A94ED210A91
:101340008DED110A94ED1F0A8DED100ACDED168A70
:1013500094ED240A8DED130AB5EEC08AF1EE10FA71
:1013600001DC94ED218A8DED148A8DED159A9FEDA7
:10137000130A8DED170A10A901A800F037F83C22D6
:1013800001A904F13800FEF74EFF9DED0B0AB5EE02
:10139000C00AF1EE10FA06D1B0EE680A31462046D6
:1013A000FFF7A0FD02E0002084F82D003A4600215E
:1013B000404600F0D9F90120ABE700000000000032
:1013C00070B50024084EC4EBC400C0EB841006EBDB
:1013D000800505F1300000F0E1F92846FFF70AFE2C
:1013E000641C002CEFD070BD200300202DE9F041DB
:1013F00005462DED088B8CB00C4618216846FEF78B
:101400002BFF002094ED048A9FEDD3BAF0EE4B8AB7
:10141000D4ED030A94ED010AF4EEC00AF1EE10FADD
:1014200001DD84ED030AD4ED050AF4EEC00AF1EE05
:1014300010FA01DD84ED050AF0EE480AF4EEC00A68
:10144000F1EE10FA01DD84ED040A4FF0FF38C34FCE
:10145000F6EE00AAEAE094ED070AB5EEC00AF1EE56
:1014600010FA6BD194ED048AD4ED001A94ED021AAF
:1014700094ED030AF0EE480A06A803F0F9FBD4ED58
:10148000001A94ED021AD4ED050AB0EE480A684637
:1014900003F0EEFB9DED0B0ADDED050AD4ED069A97
:1014A00030EE201AB4EEE91AF1EE10FA07D839EE50
:1014B000C00A30EE600AC0EE088A0320B9E0B0EE40
:1014C000489A002639EE0B0A20EE2A8AD4ED001A3B
:1014D00094ED021A94ED030AF0EE480A06A803F010
:1014E000C7FBD4ED001A94ED021AD4ED050AB0EE54
:1014F000480A684603F0BCFB9DED0B0ADDED050ACA
:1015000030EE200A30EE690AF0EEC00A10EE900AC2
:10151000B8420CDBB5EEC00AF1EE10FA02DDB0EE17
:10152000489A01E0B0EE48BA761C202ECAD3202E8D
:1015300001D004207DE06FF001007AE0D4ED001AC4
:1015400094ED021AD4ED050A94ED030A06A803F0FF
:101550008FFBDDED0A0A94ED070AF4EEC00AF1EE06
:1015600010FA06DDB5EEC00AF1EE10FA01D04046E1
:101570005FE094ED06AA94ED019AF0EE4B9AF0EE3E
:10158000698A002639EE290A20EE2A8AD4ED001A4B
:1015900094ED021A94ED030AF0EE480A06A803F04F
:1015A00067FBD4ED001A94ED021AD4ED050AB0EEF3
:1015B000480A684603F05CFB9DED0B0ADDED050A69
:1015C00030EE200AB4EECA0AF1EE10FA0CDCDDEDC2
:1015D0000A0A9DED041A70EE810A94ED071AF4EEE2
:1015E000C10AF1EE10FA02DDB0EE489A18E071EE91
:1015F000608A08EE880A30EE4A0AF0EEC00A10EE61
:10160000900AB84202DC85ED038A0CE0B5EEC00A10
:10161000F1EE10FA02D2F0EE489A01E0B0EE489AEC
:10162000761C202EAED3202E4AD0012000283FF475
:1016300012AF94ED030A85ED090A94ED050A85EDD4
:101640000A0A9DED060A85ED010ADDED080AC5EDE1
:10165000040A9DED090A85ED050AC5ED088A85EDA8
:10166000038A9DED001A85ED021ADDED021AC5ED23
:10167000061A9DED031A85ED071A9DED0B2A85EDDF
:101680000C2A9DED052A85ED0D2A9DED0B2ADDED39
:10169000052A32EE222A08EE882A85ED0E2AB0EEBF
:1016A000002A00EE820A30EE280A01EE820A30EEAD
:1016B000010A85ED0B0A0CB0BDEC088BBDE8F0818A
:1016C00094ED019AD4ED069A002639EE0B0A20EE2D
:1016D0002A8AD4ED001A94ED021A94ED030AF0EE72
:1016E000480A06A803F0C4FAD4ED001A94ED021AD1
:1016F000D4ED050AB0EE480A684603F0B9FA9DED4C
:101700000B0ADDED050A30EE200AB4EEE90AF1EE2F
:1017100010FA02DDB0EE489A19E039EEC00AC0EEC8
:10172000088A9DED0A0ADDED040A30EE200AD4EDA8
:10173000070A30EE280A30EEC00AB5EEC00AF1EE14
:1017400010FA02D2B0EE48BA01E0B0EE489A761C28
:10175000102EBAD340466CE70000000017B7D1380E
:101760000121017070470000002A08D0012A09D029
:101770004260817001214170002101707047034A6D
:101780004260F6E7024A4260F3E70000951700085E
:101790009917000800207047012070472DE9F0419B
:1017A00004462DED048B002604F1780520780027EF
:1017B00000280CD1607850B160688047012806D1BC
:1017C000677084F84470A07884F84600012694F885
:1017D0004400B0EE009ADFEDFB8ADFEDFB9AB6EE37
:1017E000008A08287DD2DFE800F004295577ABC9CC
:1017F000FBFC94F8460030B1A06C90ED000ABDEC03
:10180000048BBDE8F081002E6BD03C2204F108016E
:101810002846FEF708FDC4ED198AC4ED179AC4EDF9
:101820001B9AC4ED1C9A95ED090A84ED1D0A95EDED
:10183000040A84ED1A0A012084F8440094ED190A80
:1018400094ED1A1AB4EEC10AF1EE10FA7DDB95EDB3
:10185000040AD4ED130AD5ED011A60EEA10A60EE78
:10186000800AC4ED1C0A60EE801AD4ED1D0A41EE18
:10187000880AC4ED1D0AD4ED1B0A30EE800A84EDFF
:101880001B0A95ED050A31EE000A84ED1A0A0220C2
:1018900084F8440094ED190AD4ED1A0AB4EEE00A73
:1018A000F1EE10FA7EDB95ED050A94ED1B1A31EE90
:1018B000001A84ED1B1A94ED1D1AD4ED1C1A01EECA
:1018C000801A84ED1D1A95ED040A30EE800A84ED2D
:1018D0001A0A032084F8440094ED190AD4ED1A0A78
:1018E00000E066E1B4EEE00AF1EE10FA7ADB95ED85
:1018F000040A94ED131AD5ED011A21EE211AD4ED44
:101900001C1A41EE401AC4ED1C1A21EE001A61EEB9
:10191000001A94ED1D1A01EE881A84ED1D1A94ED3B
:101920001B1A31EE000A84ED1B0AC4ED179A95EDDF
:10193000080A30EE800A84ED1A0A042084F8440074
:10194000D4ED190A94ED1A0A00E09BE0F4EEC00A07
:10195000F1EE10FA7DDBD5ED080A94ED1B1A71EE5D
:10196000200AC4ED1B0AC4ED1C9AD5ED060A30EE20
:10197000200A84ED1A0A052084F8440094ED190A1F
:1019800094ED1A1AB4EEC10AF1EE10FA79DB95ED76
:10199000060AD4ED130AD5ED021A60EEA10AD4EDC1
:1019A0001C1A00E085E040EE801AC4ED1C1A60EEBF
:1019B000800A60EE801AD4ED1D0A41EE880AC4ED5B
:1019C0001D0AD4ED1B0A30EE800A84ED1B0A95ED4A
:1019D000070A31EE000A84ED1A0A062084F8440052
:1019E00001E022E072E094ED190AD4ED1A0AB4EE97
:1019F000E00AF1EE10FA7CDB95ED070A94ED1D1A72
:101A0000D4ED1C1A01EE801A84ED1D1A94ED1B1AF8
:101A100031EE000A84ED1B0A95ED060A30EE800ACD
:101A200084ED1A0A072084F8440094ED190AD4EDD5
:101A30001A0AB4EEE00AF1EE10FA6FDB95ED060A31
:101A4000D4ED130A95ED021A60EE810A94ED1C1A8A
:101A500000E05EE000EEC01A84ED1C1A60EE800A21
:101A600060EE800A94ED1D0A00EE880A84ED1D0ADE
:101A7000C4ED179A95ED0A0A84ED180A84F84470AB
:101A800097E04CE0D4ED1B0A30EE600AD4ED130A67
:101A900095ED011A60EE810A60EE800AC4ED170A26
:101AA00060EE800A94ED1D0A00EE880A84ED180AA3
:101AB0007FE0D4ED1B0A30EE600AD4ED1D0A94EDF0
:101AC0001C1A41EE000AC4ED180A72E0D4ED1B0A9C
:101AD00030EE600AD4ED130A95ED011A60EE810A2A
:101AE00094ED1C1A00EEC01A84ED171AD5ED041AF5
:101AF00000E02FE0B0EE401A11EE891A21EE000A44
:101B000060EE800A94ED1D0A00EE880A84ED180A42
:101B10004FE094ED1D0A84ED180A4AE029E0D4ED67
:101B20001B0A30EE600AD4ED130A95ED021A60EE3E
:101B3000810A94ED1C1A00EE801A84ED171A60EEEB
:101B4000800A60EE800A94ED1D0A00EE880A84ED9A
:101B5000180A2EE0D4ED1B0A70EE600A94ED1C0A00
:101B600084ED170A94ED1D1A00EE201A84ED181A60
:101B70001FE0D4ED1B0A30EE600AD4ED130A95ED98
:101B8000021A60EE810A94ED1C1A00EEC01A84ED70
:101B9000171AD5ED061AB0EE401A11EE891A21EE89
:101BA000000A60EE800A94ED1D0A00EE880A84EDBA
:101BB000180A94ED190A30EE280A84ED190A94EDFA
:101BC000180A1CE66F12833A0000000000280ED0AD
:101BD00007490160042141600121017628228260C9
:101BE000B6EE000A80ED050A0522828181747047F5
:101BF0000004024030B400285BD0817C002401291D
:101C000003D18474C4810482C474028A81898A42A3
:101C100012D30121C174017E012906D08188006898
:101C200030BC89B2012200F018BB8188006830BC4A
:101C300089B2002200F011BBC189491C89B2C1815F
:101C40008368D0ED050A00EE103AB8EE400A60EE67
:101C5000200A00EE101AB8EE400AF4EEC00AF1EEC7
:101C600010FA10DB017E012906D08188006830BCA3
:101C700089B2002200F0F1BA8188006830BC89B2D4
:101C8000012200F0EABA994210D2017E012906D061
:101C90008188006830BC89B2012200F0DEBA8188F8
:101CA000006830BC89B2002200F0D7BAC481521C4F
:101CB000028230BC70472DE9F0410446A76D00F068
:101CC000D3FA054694F835000026022806D0802075
:101CD000606584F834600120BDE8F0812068016807
:101CE00021F0160101602068416921F08001416105
:101CF000206C08B9A06C20B12068016821F00801AF
:101D000001602068016821F0010101600BE000F032
:101D1000ABFA401B052806D920203434206203206A
:101D200060702670D8E720680068C007EFD13434AF
:101D30003F2094F828108840B86001206070267019
:101D40000020C9E790F83510022903D080214165B1
:101D500001207047052180F835100068016821F0E6
:101D600001010160002070472DE9F84304464FF05F
:101D70000009CDF800906F484FF416510068B0FB91
:101D8000F1F7A56D2E6894F85C00082202FA00F1C4
:101D9000314210D02068016849070CD5016821F054
:101DA0000401016094F85C0002FA00F1A960606D22
:101DB00040F00100606594F85C104FF0010808FAEB
:101DC00001F0304208D021684969090604D5A860AD
:101DD000606D40F00200606594F85C10042088405B
:101DE000304208D021680968890704D5A860606D71
:101DF00040F00400606594F85C1010208840304288
:101E000020D02168096809071CD5A86020680168EE
:101E100049030CD50068000304D4216C91B120461D
:101E200088470FE0A16C69B1204688470AE0016845
:101E3000C90503D4016821F008010160216C09B1D2
:101E40002046884794F85C102020884030424CD0CF
:101E500021680968C90648D5A86094F835000528A6
:101E60000BD020680168490330D50068000328D4EE
:101E7000616C51B32046884737E02068016821F043
:101E8000160101602068416921F080014161206CE8
:101E900008B9A06C20B12068016821F00801016038
:101EA00094F85C103F208840A86084F8358084F85E
:101EB0003490216D00293BD001B02046BDE8F043AD
:101EC0000847E16B09B1204688470EE00168C90563
:101ED00007D4016821F01001016084F8358084F88E
:101EE0003490E16B09B120468847606D00281FD00F
:101EF000606DC00714D0052084F8350020680168A3
:101F000021F0010101600098401C0090B84203D804
:101F100020680068C007F6D184F8358084F83490D2
:101F2000E16C002904D001B02046BDE8F043084729
:101F3000BDE8F8830C0000202DE9F041044600F0D4
:101F400093F905465CB1022084F83500002684F838
:101F500034602068016821F0010101600DE001207A
:101F6000BDE8F08100F080F9401B052805D920204C
:101F70006065032084F83500F2E720680068C00738
:101F8000F0D121680A6820480240D4E901031843CF
:101F9000D4E903352B43184363691843A3691843F5
:101FA000E3691843236A18431043626A042A03D181
:101FB000D4E90B231A43104308602068406920F0DD
:101FC0000700656A29460543012704290DD1A06A47
:101FD0000543E06A48B12046FEF730FF28B14020B3
:101FE000606584F835700120BAE7206845612046B5
:101FF000FEF70EFF94F85C203F21914081606665FA
:1020000084F835700020ABE73F8010F02DE9F041F7
:1020100004460025A66D94F8340001280DD0012057
:1020200084F8340094F835700020012F07D084F82C
:10203000340002252846BDE8F0810220FBE7022794
:1020400084F8357060652046FEF734FF94F85C1024
:102050003F208840B0602068016841F016010160AF
:10206000206C20B12068016841F0080101602068FF
:10207000016841F001010160DCE700002DE9F84F43
:102080000022DFF89C914FF0010803274FF00F0C5E
:1020900009F1040AA9F1040B08FA02F50B682B40B8
:1020A000AB426ED10C7904F00304012C01D0022C58
:1020B00015D18668540007FA04FE26EA0E06D1F808
:1020C0000CE00EFA04FE4EEA060EC0F808E0446882
:1020D000AC430D79C5F300159540254345600C7957
:1020E000E443A40708D0C568540007FA04F6B543D2
:1020F0008E68A6402E43C6600C7904F00304022CBF
:1021000011D1D40800EB8406356A5407E40E0CFAAA
:1021100004FE25EA0E05D1F810E00EFA04FE4EEAA0
:10212000050EC6F820E00568540007FA04F6B5432A
:102130000E7906F00306A6402E4306604C6814F4A0
:10214000403F67D0374C256845F4804525602468BA
:1021500004F480440094344C22F003052E19D6F880
:10216000085894074FEA147E0CFA0EF4A5432F4C3E
:10217000A04201D1002424E02D4CA04202D1012430
:102180001FE047E02B4CA04201D1022419E02A4C69
:10219000A04201D1032414E0284CA04201D1042420
:1021A0000FE0274CA04201D105240AE0254CA042B3
:1021B00001D1062405E0244CA04201D1072400E00F
:1021C000082404FA0EF42C43C6F80848D9F8004055
:1021D0009C434D68ED0200D51C43C9F80040DAF875
:1021E00000409C434D68AD0200D51C43CAF8004036
:1021F000DBF800409C434D68AD0300D51C43CBF891
:102200000040074D083D2C689C434E68F60300D5FE
:102210001C432C60521C102AFFF43EAFBDE8F88F1F
:10222000083C0140443802400030014000000240B8
:102230000004024000080240000C0240001002406E
:102240000014024000180240001C024000690842CD
:1022500001D00120704700207047002A01D0816121
:102260007047090481617047014880687047000029
:1022700000000020024881680278114481607047A4
:102280000000002010B50B48016841F400710160A6
:10229000016841F480610160016841F4807101606E
:1022A000032000F071F8002000F006F800F026F896
:1022B000002010BD003C024070B504460D4D4FF4A7
:1022C0007A712878B1FBF0F00B490968B1FBF0F0A6
:1022D00000F04EFB08B1012070BD102C07D2002287
:1022E0002146501E00F030F86C60002070BD0120C7
:1022F00070BD0000000000200C00002008B50A4856
:10230000016841F480410160006800F48040009061
:102310000548001F016841F080510160006800F02D
:102320008050009008BD000044380240002809DBBE
:1023300000F01F02012191404009800000F1E020DF
:10234000C0F8001170470000F0B40D460D4B1B683B
:10235000C3F30223C3F10704042C00D90424191D7C
:10236000072901D2002300E0DB1E012606FA04F152
:10237000491E294099409E40761E16403143F0BCCC
:1023800001F07BBF0CED00E000F00701054A10688A
:102390004FF6FF03184040EA01200349084310604C
:1023A000704700000CED00E00000FA052DE9F04751
:1023B00004460D46002C13D0DFF82891D9F8000010
:1023C000EFB200F00700A8420CD289F80070D9F8EB
:1023D000000000F00700A84204D00120BDE8F0870B
:1023E0000120FBE72068404E810712D5400703D546
:1023F000306840F4E05030602078000703D5306842
:1024000040F4604030603068A16820F0F00008437C
:1024100030602078C00731D033496068083901281E
:1024200008D002280BD0032809D0096889070BD4EB
:102430000120D3E70968890306D40120CEE70968A3
:10244000890101D40120C9E7316821F0030101436A
:102450003160FFF709FF804641F2883A07E0FFF755
:1024600003FFA0EB0800504501D90320B6E7306810
:10247000616800F00C00B0EB810FF0D1D9F80000DA
:1024800000F00700A84209D989F80070D9F80000C7
:1024900000F00700A84201D001209FE72078400704
:1024A00005D53068E16820F4E050084330602078BA
:1024B000000706D53068216920F4604040EAC10079
:1024C000306000F03FF83168084AC1F30311515CF5
:1024D000C8400749086007480068FFF7EDFE002084
:1024E0007CE70000003C024008380240B04D000884
:1024F0000C00002004000020014800687047000024
:102500000C00002000B5FFF7F7FF04490968044AF2
:10251000C1F38221515CC84000BD00000838024070
:10252000C04D000800B5FFF7E7FF04490968044AF9
:10253000C1F34231515CC84000BD00000838024080
:10254000C04D000810B51748006810F00C0116487F
:1025500016D0164B042912D0082911D1114C241F72
:10256000216801F03F02216849020AD52068C0F3C2
:102570008810A0FB03010023FDF724FE09E01846A4
:1025800010BD21680023C1F38811A1FB0001FDF7F4
:1025900019FE2168C1F30141491C4900B0FBF1F06B
:1025A00010BD0000083802400024F40040787D018E
:1025B0002DE9F84F0446002C13D02078DFF8A083D3
:1025C000C007A8F1040556D008F104000168C1F362
:1025D000810101290CD00068C0F38100022803D0DA
:1025E0000DE00120BDE8F88FD8F80000400206D5C4
:1025F000286880033FD5606870BB0120F2E76068FF
:10260000B0F5803F10D0B0F5A02F12D0286820F48C
:1026100080302860286820F4802028606068E0B15D
:10262000FFF722FE064614E0286840F48030286058
:10263000F4E7286840F480202860286840F480305F
:102640002860EBE7FFF710FE801B642801D9032008
:10265000C8E728688003F5D50DE0FFF705FE0646BC
:1026600006E0FFF701FE801B642801D90320B9E7CB
:1026700028688003F5D42078BA4F80074FF000090E
:1026800048D5B748001D016811F00C0F08D000684C
:10269000C0F38100022813D1D8F8000040020FD403
:1026A0002868800704D5E068012801D0012099E757
:1026B0002868216920F0F80040EAC100286029E07C
:1026C000E068B8B101203860FFF7CEFD064606E0AD
:1026D000FFF7CAFD801B022801D9032082E7286882
:1026E0008007F5D52868216920F0F80040EAC1008C
:1026F00028600FE0C7F80090FFF7B6FD064606E039
:10270000FFF7B2FD801B022801D903206AE7286881
:102710008007F5D42078000729D5DFF844A2924835
:1027200061690AF1700A89B101210160FFF79CFD1E
:10273000064606E0FFF798FD801B022801D903201A
:1027400050E7DAF800008007F4D510E0C0F80090F8
:10275000FFF78AFD064606E0FFF786FD801B02288C
:1027600001D903203EE7DAF800008007F4D420788E
:10277000400778D54FF0000A79483C300068C00027
:102780000BD477483C30016841F08051016000680B
:1027900000F0805000904FF0010ADFF8D0B1DBF874
:1027A0000000C00514D4DBF8000040F48070CBF8C2
:1027B0000000FFF759FD064606E0FFF755FD801BB8
:1027C000022801D903200DE7DBF80000C005F4D58D
:1027D000634EA0686C3601280FD0052812D03068EF
:1027E00020F001003060306820F004003060A06804
:1027F000F8B1FFF739FD834617E0306840F001007B
:102800003060F4E7306840F004003060306840F039
:1028100001003060EBE7FFF727FDA0EB0B0141F271
:102820008830814201D90320DCE630688007F2D588
:1028300010E0FFF719FD834609E0FFF715FDA0EB57
:102840000B0141F28830814201D90320CAE6306889
:102850008007F2D4BAF1010F05D141483C3001683C
:1028600021F080510160A069C0B33D49091D09688C
:102870004FF0FF36C1F38101022946D0022805D06E
:10288000C7F86090FFF7F0FC04463AE0C7F86090A4
:10289000FFF7EAFC814607E0FFF7E6FCA0EB090042
:1028A000022801D903209DE628688001F4D4D4E9E8
:1028B00007010843616AA26A890106EB520241EAF4
:1028C0000241084394F82C1040EA0160C8F8000067
:1028D00001203866FFF7C8FC044607E03DE0FFF73B
:1028E000C3FC001B022801D903207BE62868800175
:1028F000F5D532E0FFF7B8FC001B022801D9032010
:1029000070E628688001F5D427E0012823D0D8F8A4
:102910000000E26900F4800191421AD1226A00F0BD
:102920003F01914215D147F6C071626A0140B1EB97
:10293000821F0ED1A26A00F4403106EB5202B1EBC5
:10294000024F06D194F82C1000F07060B0EB016FCC
:1029500003D0012046E6012044E6002042E60000C4
:102960000438024000004742800E47420070004099
:1029700010B5401EB0F1807F01D3012010BD4FF093
:10298000E02460610F21601701F077FC0020A06156
:1029900007202061002010BD10B590F83C20012ACE
:1029A00022D0012280F83C20CA6800238C6822F4DF
:1029B000407222434C6822F4806222430C6822F465
:1029C000006222430C6922F4805222434C6922F4B3
:1029D00000522243C96922F480420A4301684A64D2
:1029E00080F83C30002010BD022010BD70B590F87A
:1029F0003C20012A31D0012680F83C60022280F878
:102A00003D2002685468936824F070050C682C43DC
:102A10005460134C0268A24214D0B2F1804F11D01E
:102A2000104CA2420ED0104CA2420BD00F4CA2422E
:102A300008D00F4CA24205D00E4CA24202D00E4C40
:102A4000A24204D123F080034968194391603C30CD
:102A5000467000210170002070BD022070BD000092
:102A6000000001400004004000080040000C00404D
:102A700000040140004001400018004010B586B03D
:102A80000446142101A8FDF7E7FB0E4821688142A6
:102A900016D100210C48026842F010020260006862
:102AA00000F0100000904FF400700190022002909E
:102AB000039104910120059001A90448FFF7DEFA73
:102AC00006B010BD00000140303802400010024046
:102AD00070B50446002594F83C0001280FD0012071
:102AE00084F83C006AB1042A0FD0082A11D00C2ABD
:102AF00013D00125002084F83C00284670BD022038
:102B000070BD206800F086FEF4E7206800F0B6FE95
:102B1000F0E7206800F0ECFEECE7206800F020FF12
:102B2000E8E710B50446002C03D094F83D0010B13E
:102B300007E0012010BD002084F83C00204600F092
:102B400015F8022084F83D00211D206800F0F8FDF2
:102B500001203D3460726070A070E070207160717F
:102B6000A071E07120722070002010BD08B50068CF
:102B70000649884208D10648016841F00101016018
:102B8000006800F00100009008BD00000000014056
:102B90004438024038B5044694F84200202801D059
:102BA000022038BD71B16AB101202063002060634A
:102BB000204601F00FF90346206B012804D00123C1
:102BC000184638BD012038BD206801684068009073
:102BD00020680C3050E8001F41F0100140E800125E
:102BE000002AF5D1ECE7000010B50C460C4800F0C7
:102BF0008BFB20B922460B49094800F0B6FB802127
:102C00000848FDF729FB802206490748FFF7C2FF65
:102C10000548C06B0068016821F00801016010BD23
:102C2000F40100208400002004010020704700000F
:102C3000F8B5044622681068D168536900F00F06A1
:102C4000002E08D1850606D58D0604D52046BDE8A0
:102C5000F84000F0D1BF0025002E66D003F0010639
:102C600001F49077374360D0C20705D0CA0503D579
:102C7000626C42F001026264420705D5DA0703D0B4
:102C8000626C42F002026264820705D5DA0703D063
:102C9000626C42F004026264020707D501F0200270
:102CA000324303D0626C42F008026264626C002A14
:102CB00031D0800604D5880602D5204600F09CFF5E
:102CC00020684069C0F38010616C090700D438B3F4
:102CD000204600F04FFF2068406940061CD5206860
:102CE000143050E8001F21F0400140E80012002A93
:102CF000F5D1E06B60B15F490165E06BFFF722F849
:102D0000002808D0E06B016D01B0BDE8F040084735
:102D10002046FFF78BFFF8BD2046FFF787FFF8BD81
:102D20002046FFF783FF6564F8BD236B012B7DD13F
:102D3000C3067BD5CB0679D51068506800905069E2
:102D40004FF0200340064FF002064FD5E26B1068AB
:102D5000406880B2DF00E8B3A18D81423BD9E085B5
:102D6000D069B8422DD020680C3050E8001F21F403
:102D7000807140E80012002AF5D12068143050E834
:102D8000001F21F0010140E80012002AF5D120685F
:102D9000143050E8001F21F0400140E80012002AE2
:102DA000F5D184F84230256320680C3050E8001FCC
:102DB00021F0100140E80012002AF5D1E06BFEF787
:102DC0007AFF6663A08DE18D401A81B22046FFF73D
:102DD0000BFFF8BDFFE7A18D8142FAD1D069B8425F
:102DE000F7D166632046FFF7FFFEF2E7A08DE18D85
:102DF000401A81B2E08D0028EBD00029E9D020688C
:102E00000C3050E8002F22F4907240E80027002F89
:102E1000F5D12068143050E8002F22F0010240E87C
:102E20000027002FF5D184F8423000E00FE0256341
:102E300020680C3050E8002F22F0100240E80023F8
:102E4000002BF5D166632046FFF7CEFEC1E70206F0
:102E500006D50A0604D52046BDE8F84001F00CB8B6
:102E60004006B6D54806B4D52046BDE8F84000F087
:102E7000A8BE0000793A000870B50446002C04D0C2
:102E800094F84100002510B106E0012070BD84F8DF
:102E90004050204600F024F8242084F841002068A7
:102EA000C16821F40051C160204600F009FF20688C
:102EB000016921F4904101612068416921F02A01F2
:102EC00041612068C16841F40051C16065642020FF
:102ED00084F8410084F842006563002070BD000062
:102EE00070B586B00646142101A8FDF7B5F924494E
:102EF0003068884241D100252248016841F0100124
:102F00000160006800F0100000901E48143801684D
:102F100041F001010160006800F0010000904FF4F1
:102F2000C0600190022002900395032004900720C6
:102F3000059001A91448FFF7A1F8154C134820602B
:102F40004FF000606060A560E5604014206165613D
:102F5000A561E5618001206265622046FEF7ECFF15
:102F600008B1FDF7BDFFF463A663002211462520DA
:102F7000FFF7EAF92520FFF7D9F906B070BD000088
:102F8000001001404438024000000240406402400A
:102F90004C010020704770472DE9F84304460E4667
:102FA00015461F4694F84100202802D00220BDE8B3
:102FB000F8837EB175B100206064212084F841005F
:102FC000FFF752F98146A584E584A068B0F5805FDB
:102FD00002D003E00120EAE7206920B1354600264F
:102FE0004FF0200815E00025FAE74B46002280212B
:102FF0002046009700F06FFF18B184F8418003204D
:10300000D5E7ADB1216815F8010B4860E08C401E92
:10301000E084E08C0028E8D14B4600224021204685
:10302000009700F058FF50B184F841800320BEE7BC
:1030300036F8020B2168C0F308004860E6E784F820
:1030400041800020B3E77047FEE7002805D081608B
:1030500080ED050A0121817482817047104800F0DB
:1030600039F91048FEF7B2FDFDF77AFE0E4800F080
:10307000C7F90E4A05210E4800F0D6FC0C480D4A4F
:1030800005211C3000F0D0FC09480B4A0A213830D9
:1030900000F0CAFC09A001F0CDF800F093FCFCE7B9
:1030A000F4010020AC01002020030020B539000805
:1030B00004040020E90D0008914100080D0A3D3D7F
:1030C0003D2053544D333220537465707065722027
:1030D0004D6F746F7220416E676C6520436F6E7424
:1030E000726F6C2053797374656D203D3D3D0D0A00
:1030F0000000000008B50948016841F48001016042
:10310000006800F480000090002211463A20FFF78A
:103110001BF9BDE808403A20FFF708B930380240F3
:103120002DE9F04387B0142102A8FDF795F800259A
:103130002348016841F001010160016801F00101CB
:103140000191016841F002010160016801F0020192
:103150000191016841F010010160006800F0100069
:103160000190DFF86090002204214846FFF775F8CF
:10317000DFF854804FF48076002231464046FFF756
:103180006CF8012402940395049402A90F48FEF7F9
:1031900075FF0420029003940227049703250595E8
:1031A00002A94846FEF76AFF029603940497059524
:1031B00002A94046FEF762FF07B0BDE8F0830000B9
:1031C000303802400004024000100240000002407B
:1031D00010B592B00024109411941C2109A8FDF799
:1031E0003BF8202101A8FDF737F81F481D49016071
:1031F000446084604FF6FF71C16004614461846182
:10320000FFF78FFC08B1FDF76BFE1094119410A925
:103210001548FFF7EBFB08B1FDF762FE09940A942D
:103220000B940C940D940E940F94002209A90E484F
:10323000FFF74EFC08B1FDF753FE0194029403948E
:10324000049405944FF400500690089401A9064890
:10325000FFF7A2FB08B1FDF743FE0348FFF70EFCA2
:1032600012B010BD000001403C00002010B5114814
:103270000F4901604FF4E131416000218160C1607C
:1032800001610C2242618161C161FFF7F5FD08B166
:10329000FDF726FE0749802280390648FFF77AFCB1
:1032A000044848300068016821F00801016010BD41
:1032B0000010014004010020FEE7FEE77047000017
:1032C000002801D00020704701210148FEF7BEBF51
:1032D0000000024070B50446002C09D0002565604E
:1032E0002560802104F10800FCF7B6FFC4F888507F
:1032F00070BD002804D0D0F8880018B100207047B5
:103300000120704701207047002805D0D0F88800C0
:10331000802803D0002070470020704701207047AC
:1033200010B503464FF0FF34002B06D029B11846E4
:10333000FFF7DFFF18B1204610BD204610BD03F196
:1033400008000EE05C68245C01F8014B1C79641CE9
:1033500004F07F045C60D3F88840641EC3F88840A2
:10336000521E002AEED1002010BD30B503464FF0AA
:10337000FF34002B06D029B11846FFF7C5FF18B15E
:10338000204630BD204630BDD3F88800C0F1800013
:10339000824200D9024603F108000EE01D6811F8D0
:1033A000014B2C541C78641C04F07F041C60D3F87F
:1033B0008840641CC3F88840521E002AEED10020C9
:1033C00030BD7047B5EEC00AF1EE10FA01D2B1EE91
:1033D000400A704704480178002902D0406800285C
:1033E00000D100207047000028000020416A0968D1
:1033F00090F82C00814201D10020704701207047D5
:1034000030B505462DED028B87B01C216846FCF7D0
:1034100023FF002D2DD09FED190A8DED010ADFED60
:10342000188ACDED028A9FED178A8DED038AF4EE9E
:10343000000ACDED000A0021049105918DF81810C5
:10344000114C284665606946FDF78CFD6068FDF704
:10345000E4FD6068FDF7CEFE0C4A0021B0EE481A8C
:10346000DFED0B0AB0EE680A6068FDF729FF012066
:10347000207007B0BDEC028B30BD00000000FA44A4
:10348000000048430000C8422800002099170008A7
:103490000000000004480178002903D0406808B10A
:1034A000FDF78CBE002070472800002010B5FFF704
:1034B00089FF10EE100AB0F17E5F02DAB7EE000A63
:1034C00010BD10EE100A03498842F9DD9FED020A93
:1034D00010BD00000000C8420000C84270B52DEDCC
:1034E000028BB0EE408AF0EE608AFFF773FF05466C
:1034F0005DB1B5EEC08AF1EE10FA02D0FFF7CAFF57
:1035000028B10020BDEC028B70BD0020FAE7B5EEBB
:10351000C08AF1EE10FA01DB002400E00124B0EED5
:10352000480AFFF74FFFB0EE408AB0EE680AFFF797
:10353000BDFFB0EE481ABDEC028B21462846BDE81F
:103540007040024ADFED020AFDF7BABE9917000883
:103550000000000010B5FFF73DFF50B172B690EDCE
:10356000010A62B6F4EE000AB8EEC00A20EE200AA4
:1035700010BD9FED010A10BD0000000000200A49A7
:103580000A78002A0BD0496849B172B691F82D200B
:1035900042B188684968884203D3401A02E000209B
:1035A0007047081A62B670472800002070B52DEDEC
:1035B000028BB0EE408AFFF70DFF044654B1B5EE22
:1035C000C08AF1EE10FA09D1BDEC028BBDE8704063
:1035D00000F01CB8BDEC028B002070BDB5EEC08AB7
:1035E000F1EE10FA01DB002500E00125B0EE480AFB
:1035F000FFF75CFFBDEC028B29462046BDE870401A
:10360000014AFDF7FBBD00009917000810B5FFF750
:10361000E1FE04465CB12046FFF7E8FE0146204685
:10362000BDE81040034A9FED040AFDF7E7BD002006
:1036300010BD000099170008000000000348007842
:10364000002801D0FDF7BCBE704700002800002014
:1036500010B5FFF7BFFE002804D072B6002141600C
:10366000816062B610BD10B5FEF704FEFFF7E6FFFD
:10367000BDE81040012000F0F7B9000030B593B06C
:10368000302107A8FCF7E8FD142102A8FCF7E4FDAF
:1036900000251D48016841F080510160006800F07C
:1036A000805001901948016841F480410160006830
:1036B00000F4804001900224079401200A90102019
:1036C0000B900D940E9508200F90A8201090119447
:1036D0000420129007A8FEF76BFF08B1FDF700FC6D
:1036E0000F200290039404954FF4A05005904FF4DE
:1036F00080500690052102A8FEF758FE002801D050
:10370000FDF7EEFB13B030BD4038024000700040C2
:103710000248016841F470010160704788ED00E0E3
:1037200005480169890706D5016921F00201016197
:103730000248FDF774BC70470000014020030020E0
:103740002DE9F0410268284D284E294FDFF8A4C02A
:10375000294B4FF08048A84209D0404507D0B042DD
:1037600005D0B84203D0604501D0984203D122F081
:1037700070044A682243A8421BD0404519D0B04289
:1037800017D0B84215D0604513D0984211D01B4CC9
:10379000A0420ED01A4CA0420BD01A4CA04208D026
:1037A000194CA04205D0194CA04202D0184CA0429E
:1037B00003D122F44074CA6822434C6922F080028B
:1037C00022438C68C4620C688462A84201D098428B
:1037D00001D109690163016841F00401016001211F
:1037E00041610260BDE8F08100000140000400403A
:1037F00000080040000C004000040140004001406F
:10380000004401400048014000180040001C0040F6
:1038100000200040F0B5056A026A22F0010202624F
:103820004368826922F0700222F003020C6814439C
:1038300025F002058A682A430E4E0F4FB04201D090
:10384000B84205D122F00805CA682A4322F00402D2
:10385000B04201D0B84207D123F4807323F400733F
:103860004D691D438B692B43436084614968416303
:103870000262F0BD0000014000040140F0B5026AA0
:10388000036A23F0100303624368846924F4E0446C
:1038900024F440740D6844EA052422F020028D6867
:1038A00042EA0512104D114EA84201D0B04206D195
:1038B00022F08002CF6842EA071222F04002A842BA
:1038C00001D0B04209D123F4806323F400634D6931
:1038D00043EA85038D6943EA85034360846149684F
:1038E00081630262F0BD000000000140000401405D
:1038F000F0B5026A036A23F4807303624368C46903
:1039000024F0700424F003050C682C4322F40072A8
:103910008D6842EA0522104D104EA84201D0B042F7
:1039200006D122F40062CF6842EA072222F48062C4
:10393000A84201D0B04209D123F4805323F40053AC
:103940004D6943EA05138D6943EA05134360C46179
:103950004968C1630262F0BD0000014000040140FB
:1039600030B5036A026A22F4805202624268C46976
:1039700024F4E04424F440740D6844EA052423F45C
:1039800000538D6843EA0533084DA84202D0084D24
:10399000A84204D122F480424D6942EA8512426075
:1039A000C46149680164036230BD00000000014049
:1039B000000401400148FEF71DB90000AC010020E1
:1039C000FEE7000070B5174DAC684FF0004609E007
:1039D000207C50B1012819D0022802D02046FFF7E0
:1039E000EFFF6468002CF3D170BDE0686968081AC5
:1039F000B042F6D2606969680844E060A06908B125
:103A00008047EEE72046FFF7DBFFEAE7E0686968FA
:103A1000081AB042E5D2606969680844E060002095
:103A20002074DEE71800002030B5002812D00D4CBD
:103A30000025A36883B1E368586003604560E060D7
:103A4000238803815B1C2380057482614161C1600E
:103A5000002030BD012030BD05604560A060E06001
:103A6000EEE700001800002002494A681044486050
:103A7000704700001800002010B5806B0021C18540
:103A8000FFF7D4F810BD70B5846B20684069C0F3AF
:103A9000C01094F841100025212904D118B1E58403
:103AA000204600F09BF820684069C0F3801094F82D
:103AB0004210222904D118B1E585204600F05AF8B9
:103AC000606C40F0100060642046FFF7AFF870BDF6
:103AD00010B50146886B096809684FF00003C905F5
:103AE0002ED4C38501680C3151E8002F22F4807276
:103AF00041E80024002CF5D10168143151E8002F71
:103B000022F0010241E80024002CF5D101681431B3
:103B100051E8002F22F0400241E80024002CF5D1AA
:103B2000202180F84210016B012909D101680C3174
:103B300051E8002F22F0100241E80024002CF5D1BA
:103B40004363016B012902D0FFF724FA10BD818D78
:103B5000FFF74AF810BD10B5806B01214163016B7E
:103B6000012902D0FFF717FA10BD818D4908FFF730
:103B70003BF810BD01680C3151E8002F22F490721F
:103B800041E80023002BF5D10168143151E8002FE2
:103B900022F0010241E80023002BF5D1016B01293D
:103BA00009D101680C3151E8002F22F0100241E8E0
:103BB0000023002BF5D1202180F842100021016361
:103BC000704710B50168CA6822F04002CA6020211F
:103BD00080F84110FFF737FA002010BD01680C3162
:103BE00051E8002F22F0C00241E80023002BF5D15C
:103BF000202180F84110704708B590F84210222922
:103C000001D0022008BD82684FF480539A4201D14E
:103C1000016921B1816A9A421DD052B10BE0816ADB
:103C200002685268C2F308020A80816A891C8162B4
:103C300009E002697AB10268526802F07F020A70F4
:103C4000816A491C8162C18D491E0904090CC18524
:103C500005D0002008BD026852680A70F0E70168CC
:103C6000CA6822F02002CA600168CA6822F4807221
:103C7000CA6001684A6922F001024A61202180F885
:103C8000421000214163026B012A03D0FFF782F941
:103C9000002008BD016301680C3151E8002F22F0BB
:103CA000100241E80023002BF5D101680A68D20612
:103CB00002D50A6849680091818DFEF795FFE7E714
:103CC0002DE9F041044620680169E26821F4405181
:103CD00011430161A1682069E269014360691043F1
:103CE00001432068C26849F20C639A430A43C260E8
:103CF00020684169A26921F440711143416133494F
:103D00002068884202D03249884202D1FEF70AFC7C
:103D100001E0FEF7F7FBE16900231927642532264D
:103D2000B1F5004F28D061688B0F8A00A0FB070116
:103D3000FCF748FA0146B0FBF5F07A42504301EB3C
:103D4000800006EB0010B0FBF5F000F0F002B1FBD4
:103D5000F5F002EB0012B1FBF5F07B42584301EBAA
:103D6000800006EB0010B0FBF5F0216800F00F00BA
:103D700010448860BDE8F08161684A18A0FB070123
:103D80005B41FCF71FFA0146B0FBF5F00201B1FB05
:103D9000F5F06FF01803584301EB800006EBC0000C
:103DA000B0FBF5F000F0F80002EB4002B1FBF5F0DB
:103DB000584301EB800006EBC000B0FBF5F0216832
:103DC00000F0070010448860D4E7000000100140B4
:103DD0000014014037B582B004461346039AA2622C
:103DE000A38500206064222184F84210E56B1F49FE
:103DF000E963E56B1E492964E56B1E49E964E16BE3
:103E000008652168E06B091DFEF700F938B1102044
:103E10006064202084F84200012005B030BD206895
:103E2000016840680190206948B120680C3050E872
:103E3000001F41F4807140E80012002AF5D120688B
:103E4000143050E8001F41F0010140E80012002A40
:103E5000F5D12068143050E8001F41F0400140E8DF
:103E60000012002AF5D10020D7E70000D13A00085F
:103E7000573B0008873A000890F84110212901D0EB
:103E8000022070478168B1F5805F01D1016961B19D
:103E9000016A4A1C0262026809785160C18C491E9D
:103EA0000904090CC1840AD013E0016A0268098878
:103EB000C1F308015160016A891C0162EEE70168E3
:103EC000CA6822F08002CA600068C16841F04001FF
:103ED000C160002070472DE9F84304460D4617469F
:103EE0009846089E25E0701C23D0FEF7BDF9A0EB94
:103EF0000800B0421BD8D6B12068C168490718D560
:103F0000802D16D0402D14D00168C943090710D464
:103F1000002521680968406800902046FFF72AFEC6
:103F20000820606484F840500120BDE8F883032035
:103F3000FBE72068006835EA000004D00020B842A2
:103F4000D1D00020F1E70120F9E700000148FEF799
:103F50006FBE0000040100207CB5002822D03EA1E5
:103F6000FCF794F90446002C1CD03CA12046FCF739
:103F70007EF9C0B13BA12046FCF779F9B0B13BA175
:103F80002046FCF774F9D8B13AA12046FCF76FF946
:103F900018B33AA12046FCF76AF9002843D038A0AC
:103FA00000F048F97CBD00F0C5F87CBDFFF72EFBA2
:103FB00008B137A100E037A137A000F03BF97CBD84
:103FC000FFF768FA18B137A000F034F97CBDFFF7AD
:103FD0003FFB38A000F02EF97CBD1FA10020FCF7AC
:103FE00055F904461CA10020FCF750F9054601A92B
:103FF000204600F07FF868B16946284600F07AF85C
:1040000040B1DDED000A9DED010AFFF767FA28B126
:104010001FA104E02AA000F00DF97CBD1DA12CA079
:1040200000F008F97CBD0CA10020FCF72FF901A9D4
:1040300000F060F830B19DED010AFFF7B7FA28B142
:1040400013A104E025A000F0F5F87CBD11A127A084
:1040500000F0F0F87CBD00002C20000053544154C7
:104060005553000053544F50000000005A45524F22
:10407000000000004D4F5645000000004356000070
:1040800045525220554E4B4E4F574E0D0A000000E0
:104090004F4B00004552520025732053544F500D92
:1040A0000A000000455252205A45524F20425553B3
:1040B000590D0A004F4B205A45524F0D0A0000007F
:1040C000455252204D4F5645204152470D0A00009F
:1040D0002573204D4F56450D0A00000045525220D1
:1040E0004356204152470D0A00000000257320432B
:1040F000560D0A0010B50C4600280ED06CB102789F
:104100006AB1A2F130010A290BD32D2A09D02B2A3A
:1041100007D02E2A05D0002010BD002010BD0020A1
:1041200010BD00F0BDF851EC100BFCF7D1F8206089
:10413000012010BD70B5FFF70DFADFED0A0A20EE81
:10414000200ABDEEC00A10EE104AFFF717FA054626
:10415000FFF7A0F92B462246BDE87040014602A0B9
:1041600000F068B800007A444F4B20535441545536
:104170005320425553593D257520504F535F554D9F
:104180003D256C642052454D3D256C750D0A00009F
:1041900070B51148FFF7ADF800281CD10E48D0F8D3
:1041A0008850402D00D940250B492A468C310A48B9
:1041B000FFF7B6F80024084E8C3603E0305D00F0BF
:1041C0000DF8641CAC42F9D3BDE8704002484021B0
:1041D0008C30FCF741B870BDF401002070B50F4C75
:1041E00000250D4A21880D2807D00A2805D05F290F
:1041F0000BD25054491C218070BD0029FCD055546D
:104200000548FFF7A9FE258070BD2580BDE87040F8
:1042100003A000F00FB80000C0020020140000202E
:1042200045525220434D44204C454E0D0A0000009B
:10423000FEE700000FB4054B10B503A9044A02982D
:1042400000F0E4FB10BC5DF814FB0000394C0008E2
:10425000340000204100080218BF04200A0E18BFD5
:1042600040F001004FF07F4232EA010108BF40F008
:104270000200012808BF052070470907090E002821
:1042800004DB00F1E02080F80014704700F00F001C
:1042900000F1E02080F8141D7047000000000000CD
:1042A00030B583B0044600F08DFB9FED090B054649
:1042B0008DED000B002221466846FCF760F8284689
:1042C00000F096FB9DED000B03B030BD0000000038
:1042D000000000000000000010B510EE100A2DEDE7
:1042E000068BB7EE001A10EE901AB0EE418A00224B
:1042F000A0F5000CDFEDFE9A4FF00073BCF1FE4F0D
:104300004FF07F4403EB410C80F0B481BCF1804F4F
:10431000C0F02082F74901449FEDF73AB1F5005F04
:1043200040F2D48200F58021CB0C03F00F0101EEA6
:10433000901AC3F307137F3BA0EBC350B8EEE12AFA
:1043400000EE100A1A44DFEDED2AF0EE411A42EEBB
:10435000221AF0EE613A70EE232A30EE632A12EE52
:10436000900A00F500606FF30B0001EE900A73EE07
:10437000E13A33EE804AC1EE223A22EE230A10EEF1
:10438000100A00F500606FF30B0000EE100A00EE5B
:10439000612A00EE442A62EE232A70EE221A21EEF0
:1043A000A12ADFEDD73A02EE233A23EE023A20EEBD
:1043B000012A22EE811A03EE211A32EE010A10EED2
:1043C000100A00F500606FF30B0000EE100A72EEA9
:1043D000401A31EE812A9FEDCB1A60EE011A9FED53
:1043E000CA1A20EE011A9FEDC90A02EE001A31EE38
:1043F000810A10EE100A00F500606FF30B0000EE6A
:10440000100AC34871EEC01A31EE812A784400EBDD
:10441000C10090ED003AD0ED011A100101EE100A32
:10442000F8EEC12A32EE211A31EE001A31EE031AEB
:1044300031EE221A11EE100A00F500606FF30B0046
:1044400009EE100A39EE621A31EE431A31EE400AD3
:1044500030EE610A32EE40AA10EE900A002100F51B
:1044600000606FF30B0008EE900A084670EEE8AAB1
:10447000FCF7D0F829EE280A00F00C01F0EEC00A93
:1044800010EE900AB0F18B4F0DDD10EE900AB4EBF8
:10449000400F08D310EE100A4FF08B4262F31E005B
:1044A00008EE900A13E069EE2A0A38EEAA1A4AEEDC
:1044B000010A30EE201A11EE100A00F500606FF3C9
:1044C0000B0008EE900A30EE680A70EE209A0C207D
:1044D000FCF7A0F838EEA90AB5EEC00AF1EE10FA22
:1044E00034BFFEEE000AF6EE000A30EE800ABDEEA2
:1044F000C00A10EE100A011100EE101AF8EEC00A00
:1045000000EE100AB8EEC00A38EEC00A30EE290AF2
:10451000DFED801A9FED801A00EE211ADFED7F1A81
:104520007F4900F00F0040EE011A21EE800A794425
:1045300001EB800191ED001A7A49794401EB800189
:10454000D1ED001A784901EE801A794401EB800020
:10455000764990ED000A31EE001AB0EEE00A10EE56
:10456000100A884215DA10EE100AB4EB400F10D38F
:104570009FED6F0A30EE800ADFED6E0A20EE200A12
:1045800068EE010ABDEC068BBCEEC00A20EE200AE4
:1045900010BD10EE100A6849884243DA10EE100A86
:1045A000B4EB400F3ED3BDEEE00A68EE010A10EE18
:1045B000100A00EBD0725110C90501F17E5100EED6
:1045C000101AA0EB6200C00560EE200A00F17E50D8
:1045D00000EE100A60EE808A18EE900AB4EB400FED
:1045E0000FD1022000F004FA00F0DCF910EE101AEE
:1045F00018EE100ABDEC068B61F31E0000EE100AE7
:1046000010BD18EE900A400011D018EE900AFFF786
:1046100021FE042808BF00F0CDF9B0EE680ABDEC19
:10462000068B10BDF5EEC00AF1EE10FA0FD2022093
:1046300000F0DEF900F0BEF910EE101A18EE100AC4
:10464000BDEC068B61F31E0000EE100A10BD0220C7
:1046500000F0CEF900F0A6F910EE101AB0EE480AFC
:1046600010EE100ABDEC068B61F31E0000EE100A7E
:1046700010BD00BFBCF1804F6CD300BF00F1FF4301
:10468000B3F1FE4F24D200BFB0EEC00A10EE100A04
:10469000C1F3C7537F2B0DDB972BBFF63BAEC3F1A6
:1046A00096034FF0010C0CFA03F3A3F1010C1CEA82
:1046B000010F08D0012000F09BF9BDEC068BBDE88E
:1046C000104000F067B90B4218BFBFEE008A21E628
:1046D00043001CBF4FF08073B3EB400F34D96FF031
:1046E0001A02DFED161A20EE210A10EE100A27E05A
:1046F00000000000001080C0ABAAAA3E0000803D70
:104700007EE24C3E00B03842D49AB8BB3BAA384255
:10471000B8090000FC596337C9FF753A1872313D7A
:10472000560900008A090000FA0800000000FC4257
:104730000000FE420000004B000040430000004D1E
:1047400010F0004FA0D1E5E5A0F50003B3F1FE4F56
:1047500021D2DFE503EB4103B3F1007F11D3F5EE86
:10476000C00AF1EE10FA05D1430018BFB4EB400FB8
:1047700076D883E701F0004141F0FC5100EE901A39
:104780007CE7B3F1807F06D210EE903AA3F50003E8
:1047900000EE903A72E720F000426FF0FF4C604C60
:1047A00002EB0C03A34210D321F000439C44A44528
:1047B0000BD3B0F17E5F18BF5FEA410C50D0B2F16D
:1047C000FF4F98BFB3F1FF4F05D9BDEC068BBDE895
:1047D000104000F0DBB8B0F1FF4F0FD0C1F3C7526B
:1047E0007F2A09DB972A11DAC2F19602012303FA24
:1047F00002F2531E0B4205D0002208E011F0004FD8
:1048000055D128E00A4218BF012200D1022210F53A
:10481000000F13D028B3B0F1004F26D010F1814F14
:104820004FD04FF0FE42B2EB400F94BF012000206A
:10483000012202EBE171884239D10CE011F0004F06
:1048400002D0012A38D032E0012A02BF9FED350A9A
:10485000BDEC068B10BD9FED340ABDEC068B10BD80
:104860002FE011F0004F0CD121E0B1F1FF4F1ED02D
:1048700011F5000F05D011F0004F15D00AB1012A33
:1048800008D0022000F0B4F8BDEC068BBDE8104063
:1048900000F072B8022000F0ABF800F06DF8BDEC4B
:1048A000068BB1EE400A10BD0AB1012A04D0B0EE69
:1048B000690ABDEC068B10BDBDEC068B9FED1B0A93
:1048C00010BDBDEC068BB7EE000A10BD30EE410AFC
:1048D000B5EE001A9FED172A00EE413AB6EE001A27
:1048E00060EE001A00EE431A61EEC11A9FED101A35
:1048F00020EE011A20EE020A9FED0F2A01EE820A35
:1049000071EE001A11EE900A00F500606FF30B00D3
:1049100009EE100A31EE491A31EE00AA9CE50000BA
:10492000FFFF3F00000080FF0000807F000000804C
:1049300000B0B841D49A38BB3BAAB84110B52DEDB0
:10494000028BB1EEC08A18EE100A20F00040C0F1D0
:10495000FF40C00F0AD010EE100A20F00040C0F156
:10496000FF40C00F04BF012000F042F8B0EE480A3B
:10497000BDEC028B10BD0000DFED030AB7EE001A9C
:1049800081EE200A704700000000000030EE200A8F
:1049900070470000DFED020A80EEA00A70470000B9
:1049A000000000009FED020A20EE000A70470000A0
:1049B000000000709FED020A20EE000A7047000020
:1049C0000000001001480068704700003800002017
:1049D00002E008C8121F08C1002AFAD170477047C8
:1049E000002001E001C1121F002AFBD17047000026
:1049F00001490860704700003800002030380A285C
:104A000001D2012070470020704700002DE9FF4FC0
:104A10008BB09A460F460446002606E025280BD0A8
:104A200052460D999047641C761C20780028F5D1D9
:104A30000FB03046BDE8F08F0025A94601227D4920
:104A400000E0054314F8013F203B02FA03F008425E
:104A5000F7D120782E2817D114F8010F45F004055E
:104A60002A280ED06FF02F022078A0F130010929FA
:104A70000AD809EB890102EB410100EB0109641C32
:104A8000F2E757F8049B641C20786C280DD004DCF6
:104A90004C2812D06A2811D104E074280DD07A284D
:104AA0000CD10AE045F4001507E0617845F4801563
:104AB000814202D1641C05F58015641C20786928A8
:104AC0003ED006DC0028B3D063280BD0642804D184
:104AD00036E0732810D075285CD052460D99904767
:104AE000761CA5E017F8040B8DF8000000208DF867
:104AF0000100E846012003E057F8048B4FF0FF3037
:104B000069074FF0000501D40AE06D1C4D450DDA30
:104B10008542FADB18F805100029F6D106E06D1C75
:104B20008542FCDB18F805100029F8D12E4404E07A
:104B300018F8010B52460D9990476D1EF8D277E098
:104B400000200A90C5F302504FF00A0B02280CD047
:104B500001CFC117021E71F100020CDA0023D0EB65
:104B6000030063EB01012D2208E0FF1D27F007077A
:104B7000F7E80201EEE72A0504D52B228DF8242060
:104B8000012203E0EA070FD02022F7E70DF1200809
:104B9000089218E000200A90C5F302504FF00A0B6B
:104BA000022803D001CF00210022EFE7FF1D27F0EC
:104BB0000707F7E80201F7E75A460A9BFBF702FBF3
:104BC000303208F8012D50EA0102F5D1ADEB0800B2
:104BD00000F1200B680701D44FF00109D94502DD2F
:104BE000A9EB0B0000E000208146002506E009A8A3
:104BF0005246405D0D9990476D1C761C0898854281
:104C0000F5DB04E0302052460D999047761CB9F14F
:104C10000001A9F10109F5DC05E018F8010B524685
:104C20000D999047761CBBF10001ABF1010BF4DC50
:104C3000641CFAE60928010013B50A23012269461B
:104C40000248FEF7A9F900981CBD000004010020ED
:104C5000FDF718FBFEF712FDFEF762FAFEF74AFABF
:104C6000FEF7B6FAFEF702FBFEF7F8F9FEE70000E2
:104C700010B504462DED068BB0EE409AF0EE618A39
:104C800070EEC90AF5EEC00AF1EE10FA02DBB7EEDB
:104C9000008A03E0BFEE008AF1EE600A84ED008A2C
:104CA00021EE010AC0EE281A9FED3DAAF0EE009A0F
:104CB000F4EEE10AF1EE10FA1ED20020207180EE2F
:104CC000A80AFFF73BFE84ED020A84ED03AA60EE1A
:104CD000290AC4ED040A20EE281A69EE290A21EEF9
:104CE000001A60EE800A21EE000A40EE080AC4EDC8
:104CF000050ABDEC068B10BD0120207181EE280A4B
:104D000084ED020A70EEE11AC1EE810AC4ED030AD5
:104D1000F5EEC00AF1EE10FA01D284ED03AAD4ED4B
:104D2000030AF0EE601A40EE291AC4ED041AF6EEFA
:104D3000001A21EE212A62EE011AC1EEA82AF0EE35
:104D4000491A42EE881A21EE201AF0EE612A41EE4D
:104D5000082A9FED141A29EE003A28EE811A21EE56
:104D6000001A21EE001A61EE003A03EE883A61EE75
:104D7000A03A62EE201A61EEA00A40EE883A62EE96
:104D8000000A60EE800A41EE400A60EE880A42EEB8
:104D9000800A33EE230A30EE200A84ED050AA8E7E4
:104DA00000000000ABAA2A3E0006101600061016EE
:104DB00000000000000000000102030406070809CB
:104DC00000000000010203040000000000000000D9
:104DD0000000B33FB2BE7D3A00002E40DFCF513815
:104DE00000007E40BF51FABA00E0A44019DAC3BA0D
:104DF00000E0C840C2ED8AB90040EB40CD1F2CBA9C
:104E0000001006412AFFFABA00C01541DFCFD137A2
:104E100000D024419A97703A0050334189478E362A
:104E200000404141E75B9D3800B04E41C00A98B94F
:104E300000A05B41558F943A00306841DA92C0BAC5
:104E40000040744162B3C63A0000803F00A0853F35
:104E500000908B3F00C0913F0030983F00F09E3F94
:104E600000F0A53F0050AD3F0000B53F0000BD3F42
:104E70000060C53F0020CE3F0040D73F00C0E03F6C
:104E800000C0EA3F0020F53F000000007D36AC394D
:104E90007D3C3839EBDCF438320A7E39124C263945
:104EA0009B6AED39A4EE83397F661E39F6398A395B
:104EB0002B426539A48211395B991F39C3EECD3974
:104EC000DDE7C637A5A22F390000803FC3AA853F82
:104ED000C2958B3FD3C3913FF037983F32F59E3F49
:104EE000D7FEA53F3F58AD3FF304B53FA408BD3FF3
:104EF0002A67C53F8C24CE3FFD44D73FDFCCE03F3F
:104F0000C7C0EA3F7D25F53FDDDDDDDDDCBBBBDD78
:104F1000DDDDDDDDDDDDDDDD988888888888888859
:104F20007777777777888888855555566666666679
:104F30006666666666688888833333322222222258
:104F4000222222222228888D684F0008000000209B
:104F50003C000000D0490008A44F00083C0000209D
:104F60001C0C0000E04900080100000010000000D7
:104F7000000000000024F400000000000000000019
:104F80000000000000000000000000000000000021
:104F90000000000000000000000000000000000011
:044FA000000000000D
:040000050800018965
:00000001FF
